{
  "contractName": "Mixer",
  "abi": [
    {
      "constant": true,
      "inputs": [],
      "name": "amt",
      "outputs": [
        {
          "name": "",
          "type": "uint256"
        }
      ],
      "payable": false,
      "stateMutability": "view",
      "type": "function"
    },
    {
      "constant": true,
      "inputs": [],
      "name": "erc20",
      "outputs": [
        {
          "name": "",
          "type": "address"
        }
      ],
      "payable": false,
      "stateMutability": "view",
      "type": "function"
    },
    {
      "inputs": [
        {
          "name": "_erc20",
          "type": "address"
        },
        {
          "name": "_amt",
          "type": "uint256"
        }
      ],
      "payable": false,
      "stateMutability": "nonpayable",
      "type": "constructor"
    },
    {
      "anonymous": false,
      "inputs": [
        {
          "indexed": false,
          "name": "commitment",
          "type": "uint256"
        }
      ],
      "name": "Deposit",
      "type": "event"
    },
    {
      "anonymous": false,
      "inputs": [
        {
          "indexed": false,
          "name": "tgt",
          "type": "address"
        }
      ],
      "name": "Mix",
      "type": "event"
    },
    {
      "constant": false,
      "inputs": [
        {
          "name": "_commitment",
          "type": "uint256"
        }
      ],
      "name": "deposit",
      "outputs": [],
      "payable": false,
      "stateMutability": "nonpayable",
      "type": "function"
    },
    {
      "constant": false,
      "inputs": [
        {
          "components": [
            {
              "name": "proof",
              "type": "string"
            },
            {
              "name": "receipent",
              "type": "address"
            }
          ],
          "name": "_proof",
          "type": "tuple"
        }
      ],
      "name": "mix",
      "outputs": [],
      "payable": false,
      "stateMutability": "nonpayable",
      "type": "function"
    }
  ],
  "bytecode": "0x608060405234801561001057600080fd5b506040516040806109d4833981018060405261002f91908101906100a6565b81600160006101000a81548173ffffffffffffffffffffffffffffffffffffffff021916908373ffffffffffffffffffffffffffffffffffffffff16021790555080600081905550505061011e565b600061008a8251610102565b905092915050565b600061009e8251610114565b905092915050565b600080604083850312156100b957600080fd5b60006100c78582860161007e565b92505060206100d885828601610092565b9150509250929050565b600073ffffffffffffffffffffffffffffffffffffffff82169050919050565b600061010d826100e2565b9050919050565b6000819050919050565b6108a78061012d6000396000f3fe60806040526004361061005c576000357c01000000000000000000000000000000000000000000000000000000009004806316eab96b14610061578063687777e41461008c578063785e9e86146100b5578063b6b55f25146100e0575b600080fd5b34801561006d57600080fd5b50610076610109565b604051610083919061072c565b60405180910390f35b34801561009857600080fd5b506100b360048036036100ae9190810190610599565b61010f565b005b3480156100c157600080fd5b506100ca610276565b6040516100d791906106f1565b60405180910390f35b3480156100ec57600080fd5b50610107600480360361010291908101906105da565b61029c565b005b60005481565b8061011981610435565b151561012457600080fd5b600082600001518051906020012060019004905060006002600083815260200190815260200160002060006101000a81548160ff021916908315150217905550600160009054906101000a900473ffffffffffffffffffffffffffffffffffffffff1673ffffffffffffffffffffffffffffffffffffffff1663a9059cbb84602001516000546040518363ffffffff167c01000000000000000000000000000000000000000000000000000000000281526004016101e39291906106c8565b602060405180830381600087803b1580156101fd57600080fd5b505af1158015610211573d6000803e3d6000fd5b505050506040513d601f19601f820116820180604052506102359190810190610570565b507ff7353f6830c660675d0122c7932ed7cdf239f1ca7ec6c51895c26af04dfc1eeb83602001516040516102699190610676565b60405180910390a1505050565b600160009054906101000a900473ffffffffffffffffffffffffffffffffffffffff1681565b6002600082815260200190815260200160002060009054906101000a900460ff161515156102ff576040517f08c379a00000000000000000000000000000000000000000000000000000000081526004016102f69061070c565b60405180910390fd5b60016002600083815260200190815260200160002060006101000a81548160ff021916908315150217905550600160009054906101000a900473ffffffffffffffffffffffffffffffffffffffff1673ffffffffffffffffffffffffffffffffffffffff166323b872dd33306000546040518463ffffffff167c01000000000000000000000000000000000000000000000000000000000281526004016103a893929190610691565b602060405180830381600087803b1580156103c257600080fd5b505af11580156103d6573d6000803e3d6000fd5b505050506040513d601f19601f820116820180604052506103fa9190810190610570565b507f4d6ce1e535dbade1c23defba91e23b8f791ce5edc0cc320257a2b364e4e384268160405161042a919061072c565b60405180910390a150565b6000606082600001519050600081805190602001206001900490506002600082815260200190815260200160002060009054906101000a900460ff1692505050919050565b600061048682356107dc565b905092915050565b600061049a82516107ee565b905092915050565b600082601f83011215156104b557600080fd5b81356104c86104c382610774565b610747565b915080825260208301602083018583830111156104e457600080fd5b6104ef83828461085e565b50505092915050565b60006040828403121561050a57600080fd5b6105146040610747565b9050600082013567ffffffffffffffff81111561053057600080fd5b61053c848285016104a2565b60008301525060206105508482850161047a565b60208301525092915050565b600061056882356107fa565b905092915050565b60006020828403121561058257600080fd5b60006105908482850161048e565b91505092915050565b6000602082840312156105ab57600080fd5b600082013567ffffffffffffffff8111156105c557600080fd5b6105d1848285016104f8565b91505092915050565b6000602082840312156105ec57600080fd5b60006105fa8482850161055c565b91505092915050565b61060c81610804565b82525050565b61061b816107a0565b82525050565b61062a81610816565b82525050565b6000601482527f6475706c696361746520636f6d6d69746d656e740000000000000000000000006020830152604082019050919050565b610670816107d2565b82525050565b600060208201905061068b6000830184610612565b92915050565b60006060820190506106a66000830186610603565b6106b36020830185610612565b6106c06040830184610667565b949350505050565b60006040820190506106dd6000830185610612565b6106ea6020830184610667565b9392505050565b60006020820190506107066000830184610621565b92915050565b6000602082019050818103600083015261072581610630565b9050919050565b60006020820190506107416000830184610667565b92915050565b6000604051905081810181811067ffffffffffffffff8211171561076a57600080fd5b8060405250919050565b600067ffffffffffffffff82111561078b57600080fd5b601f19601f8301169050602081019050919050565b60006107ab826107b2565b9050919050565b600073ffffffffffffffffffffffffffffffffffffffff82169050919050565b6000819050919050565b60006107e7826107b2565b9050919050565b60008115159050919050565b6000819050919050565b600061080f8261083a565b9050919050565b600061082182610828565b9050919050565b6000610833826107b2565b9050919050565b60006108458261084c565b9050919050565b6000610857826107b2565b9050919050565b8281833760008383015250505056fea265627a7a72305820b0cb90ec7bc2b451997f7b21e217827ab7d31b5c3e59d435fca0ea2ba57fb9996c6578706572696d656e74616cf50037",
  "source": "// SPDX-License-Identifier: MIT\npragma solidity >=0.4.22 <0.8.0;\npragma experimental ABIEncoderV2;\n\nimport \"./IERC20.sol\";\n\ncontract Mixer {\n    /***Events***/\n    event Deposit(uint256 commitment);\n    event Mix(address tgt);\n\n    /***Fields***/\n    uint public amt;\n    IERC20 public erc20;\n\n    mapping(uint256=>bool) commitments;\n\n    /***Struct***/\n    struct DepositProof{\n        string proof;\n        address receipent;\n        //We omit the signature here  \n    }\n\n    constructor(address _erc20, uint _amt) public {\n        erc20 = IERC20(_erc20);\n        amt = _amt;\n    }\n\n    modifier onlyValidProof(DepositProof memory _proof){\n        require(_isValidProof(_proof));\n        _;\n    }\n\n    //人家可以判断出：alice释放了值为1的承诺\n    function deposit(uint256 _commitment) public {\n        require(!commitments[_commitment], \"duplicate commitment\");\n\n        commitments[_commitment] = true;\n\n        erc20.transferFrom(msg.sender, address(this), amt);        \n\n        emit Deposit(_commitment);\n\n    }\n\n    //人家可以判断出：目标转账为bob的这笔交易，消耗了值为1的承诺\n    function mix(DepositProof memory _proof) public onlyValidProof(_proof){\n        uint256 commitment = uint256(keccak256(bytes(_proof.proof)));\n        \n        commitments[commitment] = false;\n\n        erc20.transfer(_proof.receipent, amt);\n\n        emit Mix(_proof.receipent);\n    }\n\n    function _isValidProof(DepositProof memory _proof) internal view returns (bool){\n        //require(signatureValid(_proof));//Omit this...\n        string memory proof = _proof.proof;\n        uint256 commitment = uint256(keccak256(bytes(proof)));\n        return commitments[commitment];\n    }\n\n\n\n}\n",
  "sourcePath": "E:/github/mason/SimpleMixer/contracts/Mixer.sol",
  "compiler": {
    "name": "solc",
    "version": "0.5.1+commit.c8a2cb62.Emscripten.clang"
  },
  "schemaVersion": "3.3.0",
  "updatedAt": "2020-10-09T07:30:09.022Z",
  "devdoc": {
    "methods": {}
  },
  "userdoc": {
    "methods": {}
  }
}